:020000040000FA
:100000000C9434000C9449000C9449000C94490061
:100010000C9449000C9449000C9449000C9449003C
:100020000C9449000C9449000C9449000C9449002C
:100030000C9449000C9449000C9449000C9449001C
:100040000C9449000C9449000C9449000C9449000C
:100050000C9449000C9449000C9449000C944900FC
:100060000C9449000C94490011241FBECFEFD8E036
:10007000DEBFCDBF12E0A0E0B1E0EAE1F4E102C0F2
:1000800005900D92A23FB107D9F70E940E010C9482
:100090000B0A0C9400002AB120652AB95C9824B59B
:1000A000236824BD25B5216025BD2FEFAC01249F19
:1000B000C001259F900D112464E670E00E940B079B
:1000C00067BD08958091C00087FF03C08091C6007E
:1000D000F9CF08958091C00087FFFCCF8091C600C2
:1000E00008959091C00095FFFCCF8093C6000895BD
:1000F0008F929F92AF92BF92DF92EF92FF920F93F7
:100100001F93CF93DF93EC018EE184B985B1817E9B
:1001100085B90E946200BE01DD0F880B990B0E9419
:100120005B0626E636E646EE50E40E94E7054B0104
:100130005C01D0E0C0E0DD24D39482E0E82E94E0BE
:10014000F92E08E017EFBE010D2E000C880B990B5D
:100150000E945B06A50194010E94E20587FF52C040
:10016000D5B82FEF81EE94E0215080409040E1F728
:1001700000C0000028982FEF81EE94E021508040CD
:100180009040E1F700C00000E5B82FEF81EE94E069
:10019000215080409040E1F700C0000029982FEFE7
:1001A00081EE94E0215080409040E1F700C00000D3
:1001B000F5B82FEF81EE94E0215080409040E1F7B8
:1001C00000C000002A982FEF81EE94E0215080407B
:1001D0009040E1F700C0000005B92FEF81EE94E0F8
:1001E000215080409040E1F700C0000015B92FEF8A
:1001F00081EE94E0215080409040E1F700C0000083
:100200002196A1CFDF91CF911F910F91FF90EF9099
:10021000DF90BF90AF909F908F9008955F926F9204
:100220007F928F929F92AF92BF92CF92DF92EF9286
:10023000FF920F931F93CF93DF93CDB7DEB7C853D1
:10024000D1400FB6F894DEBF0FBECDBF1092C500EF
:1002500087E68093C40088E18093C1008EE080939C
:10026000C2008FE0E3E0F1E0DE01A55FBE4F019048
:100270000D928A95E1F78CE2E2E1F1E0DE01119660
:1002800001900D928A95E1F78AE0EEE3F1E0DE015C
:10029000AC5DBE4F01900D928A95E1F787E2E8E4EC
:1002A000F1E0DE01A258BF4F01900D928A95E1F76F
:1002B00088E0EFE6F1E0DE01A25DBE4F01900D9215
:1002C0008A95E1F782E2E7E7F1E0DE01AB55BF4F47
:1002D00001900D928A95E1F78E010E511F4F84EF28
:1002E000682E7724739490E0C92E91E0D92E28E0EF
:1002F000522E8DE00E9471008AE00E9471000E94DF
:100300006200BE01655F7E4F7B01F70181917F0135
:10031000882349F00E9471008FE39CE90197F1F76F
:1003200000C00000F2CF0E9462008DE00E947100C8
:100330008AE00E9471000E946200FE0131967F01F6
:10034000F70181917F01882349F00E9471008FE3BA
:100350009CE90197F1F700C00000F2CF0E94620013
:100360000E946A00F82E0E9471008F2D8F7D8134CB
:1003700009F0F7C187E1E9E9F1E0DE01AA5ABF4FD0
:1003800001900D928A95E1F78DE00E9471008AE05C
:100390000E9471000E946200FE01EA5AFF4F7F0135
:1003A000F70181917F01882349F00E9471008FE35A
:1003B0009CE90197F1F700C00000F2CF0E946200B3
:1003C0008EE1E0EBF1E0DE019D9601900D928A95C1
:1003D000E1F780E1EEECF1E0DE01A953BF4F0190BF
:1003E0000D928A95E1F78DE00E9471008AE00E94EB
:1003F00071000E9462007E019DE2E90EF11C47013E
:10040000F70181917F01882349F00E9471008FE3F9
:100410009CE90197F1F700C00000F2CF0E94620052
:100420008DE00E9471008AE00E9471000E946200CB
:10043000FE01E953FF4F7F01F70181917F0188237E
:1004400049F00E9471008FE39CE90197F1F700C029
:100450000000F2CF0E94620081E080937C0080E483
:1004600080937C0087E080937A0080917A00806896
:1004700080937A0080917A00806480937A008091E2
:100480007A0084FFFCCF2091780030917900269D7E
:10049000C001279D900D369D900D112497FF02C03D
:1004A00081509C4F892F880F880BE92EE594E594A5
:1004B000F82E8F93EF92DF92CF921F930F930E94AB
:1004C000330758010F900F900F900F900F900F90DF
:1004D000F50181915F01882319F00E947100F8CF26
:1004E0008AE590E0F0E1EF16F10414F48CE390E07B
:1004F0000E944B0087E1EEEDF1E0DE019D96019058
:100500000D928A95E1F78AE0E5EFF1E0DE01A9536B
:10051000BF4F01900D928A95E1F78DE00E94710026
:100520008AE00E9471000E9462007401F7018191CB
:100530007F01882349F00E9471008FE39CE90197B5
:10054000F1F700C00000F2CF0E9462008AE00E9432
:1005500071008DE00E9471000E946200FE01E9536B
:10056000FF4F7F01F70181917F01882349F00E94AD
:1005700071008FE39CE90197F1F700C00000F2CF12
:100580000E94620080E284B980E480937C0087E06E
:1005900080937A0080917A00806880937A008091BD
:1005A0007A00806480937A0080917A0084FFFCCF87
:1005B000209178003091790044E6429FC001439F2A
:1005C000900D112497FF02C081509C4F892F880FF6
:1005D000880BE92EE594E594F82E8F93EF92DF9245
:1005E000CF921F930F930E9433070E94620058011D
:1005F0000F900F900F900F900F900F90F501819139
:100600005F01882319F00E947100F8CFF5E0EF1622
:10061000F10414F080E285B985E1EFEFF1E0DE014D
:10062000A953BF4F01900D928A95E1F789E1E4E16A
:10063000F2E0DE019D9601900D928A95E1F7189BFC
:100640001AC08DE00E9471008AE00E9471000E9431
:100650006200BE0169537F4F7B01F70181917F01E9
:10066000882319F00E947100F8CF0E9462008AE589
:1006700090E00E9478001899E7C18DE00E94710017
:100680008AE00E9471000E9462007401F70181916A
:100690007F01882319F00E947100F8CF8EE184B9A0
:1006A00085B1817E85B90E94620090E080E054E0CF
:1006B00042E031E02EEF8D30910509F4C5C155B807
:1006C000FFEF61EE74E0F15060407040E1F700C070
:1006D00000002B98EFEFF1EE64E0E150F040604055
:1006E000E1F700C0000055B97FEFE1EEF4E0715092
:1006F000E040F040E1F700C000002A986FEF71EE93
:10070000E4E061507040E040E1F700C0000045B90E
:10071000FFEF61EE74E0F15060407040E1F700C01F
:1007200000002998EFEFF1EE64E0E150F040604006
:10073000E1F700C0000035B97FEFE1EEF4E0715061
:10074000E040F040E1F700C0000025B96FEF71EE26
:10075000E4E061507040E040E1F700C00000019625
:10076000AACF8D3409F070C18BE1EDE2F2E0DE0139
:10077000A953BF4F01900D928A95E1F789E2E8E411
:10078000F2E0DE019D9601900D928A95E1F788E2F4
:10079000E1E7F2E0DE01AA5ABF4F01900D928A957F
:1007A000E1F78AE0E9E9F2E0DE01A65EBE4F0190E2
:1007B0000D928A95E1F78DE00E9471008AE00E9417
:1007C00071000E946200BE0169537F4F7B01F701F7
:1007D00081917F01882349F00E9471008FE39CE999
:1007E0000197F1F700C00000F2CF0E9462008DE097
:1007F0000E9471008AE00E9471000E9462007E01E6
:100800009DE2E90EF11CF70181917F01882349F0F7
:100810000E9471008FE39CE90197F1F700C000008E
:10082000F2CF0E9462000E946A00F82E0E947100BE
:1008300093E7F9127DC087E1E3EAF2E0D801019085
:100840000D928A95E1F780E1EAEBF2E0DE01A75034
:10085000BF4F01900D928A95E1F78DE00E947100E3
:100860008AE00E9471000E9462007801F701819184
:100870007F01882349F00E9471008FE39CE9019772
:10088000F1F700C00000F2CF0E9462008DE00E94EC
:1008900071008AE00E9471000E946200FE01E75030
:1008A000FF4F7F01F70181917F01882349F00E946A
:1008B00071008FE39CE90197F1F700C00000F2CFCF
:1008C0000E9462007E019AECE91A9EEFF90A470144
:1008D000E3E08E0E911C57010E946A00F70181939C
:1008E0007F010E947100E814F904B1F7F501138249
:1008F000C5010E94BC050E9478008DE00E94710035
:100900008AE00E9471000E946200FE01EA5AFF4FD5
:100910007F01F70181917F01882309F46EC00E9455
:1009200071008FE39CE90197F1F700C00000F1CF5F
:10093000F4E6FF12E2CF82E1EAECF2E0DE01A7503A
:10094000BF4F01900D928A95E1F785E1ECEDF2E061
:10095000D80101900D928A95E1F78DE00E94710017
:100960008AE00E947100BE0167507F4F7B01F70152
:1009700081917F01882349F00E9471008FE39CE9F7
:100980000197F1F700C00000F2CF0E9462008DE0F5
:100990000E9471008AE00E9471007801F701819144
:1009A0007F01882349F00E9471008FE39CE9019741
:1009B000F1F700C00000F2CF0E9462000E946A00BE
:1009C000CA5CDE4F8883C653D1400E9471000E94EA
:1009D0006A00C95CDE4F8883C753D1400E94710012
:1009E000C85CDE4F1882C853D140CE018A5C9E4F4E
:1009F0000E94BC050E944B0080CF0E9462000E94B2
:100A00006A00F82E0E94710099E7F91609F4EFCEFA
:100A10008DE00E9471008AE00E9471000E946200D5
:100A2000FE01E65EFE4F7F01F70181917F01882381
:100A300049F00E9471008FE39CE90197F1F700C033
:100A40000000F2CF0E9462008DE00E9471008AE0F7
:100A50000E9471000E946200FE01E258FF4F7F0178
:100A6000F70181917F01882349F00E9471008FE393
:100A70009CE90197F1F700C00000F2CF0E946200EC
:100A80000E946A00F82E0E94710099E7F91609F495
:100A900030CC8DE00E9471008AE00E9471000E94BB
:100AA00062008E01025D1E4FF80181918F01882343
:100AB00049F00E9471008FE39CE90197F1F700C0B3
:100AC0000000F2CF0E9462008DE00E9471008AE077
:100AD0000E9471000E9462008E010B551F4FF801A9
:100AE00081918F01882349F00E9471008FE39CE976
:100AF0000197F1F700C00000F2CF0E9462000E944F
:100B00006A00182F0E9471001137D9F42D9817BC74
:100B10008DE00E9471008AE00E9471000E946200D4
:100B20008E010C5D1E4FF80181918F01882349F0E1
:100B30000E9471008FE39CE90197F1F700C000006B
:100B4000F2CF0E94620090E080E0C85CDE4F0FB6FA
:100B5000F894DEBF0FBECDBFDF91CF911F910F91F3
:100B6000FF90EF90DF90CF90BF90AF909F908F90CD
:100B70007F906F905F900895FC0188279927E894F3
:100B800021912032E9F3293010F02E30C8F32B32B6
:100B900041F02D3239F4689404C00E94DA05820FC6
:100BA000911D219120532A30C0F31EF49095819518
:100BB0009F4F08957AE0979F902D879F802D910DEC
:100BC000112408950E94960608F481E008950E9479
:100BD000FB050C94D1060E94CA0658F00E94C30679
:100BE00040F029F45F3F29F00C94BA0651110C949F
:100BF00005070C94C0060E94E20668F39923B1F33E
:100C0000552391F3951B550BBB27AA276217730732
:100C1000840738F09F5F5F4F220F331F441FAA1FC6
:100C2000A9F335D00E2E3AF0E0E832D09150504082
:100C3000E695001CCAF72BD0FE2F29D0660F771F30
:100C4000881FBB1F261737074807AB07B0E809F016
:100C5000BB0B802DBF01FF2793585F4F3AF09E3F9B
:100C6000510578F00C94BA060C9405075F3FE4F345
:100C7000983ED4F3869577956795B795F7959F5FDE
:100C8000C9F7880F911D9695879597F90895E1E02A
:100C9000660F771F881FBB1F621773078407BA0789
:100CA00020F0621B730B840BBA0BEE1F88F7E095E4
:100CB0000895E89409C097FB3EF49095809570954F
:100CC00061957F4F8F4F9F4F9923A9F0F92F96E998
:100CD000BB279395F695879577956795B795F1110D
:100CE000F8CFFAF4BB0F11F460FF1BC06F5F7F4FAA
:100CF0008F4F9F4F16C0882311F096E911C07723BC
:100D000021F09EE8872F762F05C0662371F096E8C4
:100D1000862F70E060E02AF09A95660F771F881F93
:100D2000DAF7880F9695879597F90895990F000837
:100D3000550FAA0BE0E8FEEF16161706E807F907AD
:100D4000C0F012161306E407F50798F0621B730B48
:100D5000840B950B39F40A2661F0232B242B252BC9
:100D600021F408950A2609F4A140A6958FEF811D6C
:100D7000811D089597F99F6780E870E060E008950D
:100D80009FEF80EC089500240A94161617061806A3
:100D90000906089500240A9412161306140605067F
:100DA0000895092E0394000C11F4882352F0BB0F10
:100DB00040F4BF2B11F460FF04C06F5F7F4F8F4F73
:100DC0009F4F089557FD9058440F551F59F05F3FAE
:100DD00071F04795880F97FB991F61F09F3F79F05D
:100DE00087950895121613061406551FF2CF4695DF
:100DF000F1DF08C0161617061806991FF1CF869561
:100E00007105610508940895E894BB276627772744
:100E1000CB0197F9089597FB072E16F4009407D09D
:100E200077FD09D00E941F0707FC05D03EF490957E
:100E300081959F4F0895709561957F4F0895AA1BE6
:100E4000BB1B51E107C0AA1FBB1FA617B70710F0B5
:100E5000A61BB70B881F991F5A95A9F780959095E7
:100E6000BC01CD010895AEE0B0E0E9E3F7E00C94F9
:100E7000E2090D891E8986E08C831A8309838FEF2E
:100E80009FE79E838D83AE01475E5F4F6F89788DAC
:100E9000CE0101960E9456072F813885020F131F3D
:100EA000F80110822E96E4E00C94FE09ABE0B0E06D
:100EB000ECE5F7E00C94D4097C013B018A01FC01CC
:100EC00017821682838181FFC8C1CE0101965C0121
:100ED000F7019381F30193FD859193FF81913F0188
:100EE000882309F453C1853239F493FD859193FF2A
:100EF00081913F01853229F4B70190E00E944609B3
:100F0000E7CF912C212C312CFFE1F31538F08B32F7
:100F100011F190F4803209F1833229F137FC3CC0A1
:100F200020ED280F2A3050F536FE20C08AE0989E2A
:100F3000200D1124922E06C08D3291F0803371F76E
:100F4000689430F8F30193FD859193FF81913F01FF
:100F50008111DACF21C0689431F8689432F8F2CF69
:100F6000689433F8EFCF689434F8ECCFEAE02E9E23
:100F7000200D1124222E689435F8E4CF8E3229F406
:100F800036FC04C1689436F8DDCF8C3619F46894C9
:100F900037F8D8CF8836B1F2982F9F7D955493308B
:100FA000E0F08336A1F18337C1F1833509F063C0E6
:100FB0002801F2E04F0E511CF801C080D180692D4C
:100FC00070E036FC02C06FEF7FEFC6010E9430096F
:100FD0004C01689437F882010AC00C5F1F4FFFE391
:100FE000F98388248394912C6501E89437F833FEC3
:100FF0002DC0522C8114910471F5552009F468CF4D
:10100000B70180E290E00E9446095A94F6CFF801B9
:10101000808189830E5F1F4FE4CF2801F2E04F0EDD
:10102000511CF801C080D180692D70E036FC02C0EF
:101030006FEF7FEFC6010E943B094C018201D5CFC3
:10104000B70180E290E00E9446092A94281419040E
:1010500009F0B0F7CECFF60137FC859137FE8191CC
:101060006F01B70190E00E94460951105A94F1E0D7
:101070008F1A9108BFCF843619F0893609F077C0EE
:10108000F80137FE6BC060817181828193810C5FB2
:101090001F4FF32DFF763F2E97FF09C09095809547
:1010A000709561957F4F8F4F9F4F689437F82AE076
:1010B00030E0A5010E947609C82ECA188C2C432C5A
:1010C00036FE0CC0E89440F8C91440F434FE05C064
:1010D00032FC03C0F32DFE7E4F2E892C44FE95C0BA
:1010E000FE01EC0DF11D8081803309F087C0242DB5
:1010F000297E422E842D8870582E43FC95C040FED8
:101100008FC09C2C821418F42C0C922C981844FE3E
:1011100091C0B70180E390E00E94460942FE09C0F9
:1011200088E790E041FE02C088E590E0B7010E94A8
:101130004609C91408F48AC0CA94D12C9FEFC91A71
:10114000D90ACA0CDB1CF60182916F01B70190E04D
:101150000E944609AC14BD04B1F74FCF6081718184
:10116000072E000C880B990B0E5F1F4F92CFD32CCC
:10117000E894D4F82AE030E0853739F1232D297F2F
:10118000D22E8F3601F148F48835A9F0F701868117
:1011900097812B96E2E10C94F009803749F088376B
:1011A000A9F7D4FE02C06894D2F820E130E00DC067
:1011B0006894D4F8F6CF34FE03C0822F8660D82E10
:1011C00020E132E002C028E030E0F801D7FE0FC095
:1011D00060817181828193810C5F1F4FA5010E9404
:1011E0007609C82ECA183D2CE89437F867CF60817D
:1011F000718190E080E00E5F1F4FF0CF42FC02C093
:10120000839478CF8394839475CF842D867809F462
:1012100071CFF6CFB70180E290E00E944609839437
:101220008214C0F3512C73CF522C5818821408F436
:101230006ECFF8CF842D867809F47BCF8BE241FE08
:1012400080E247FC8DE2B70190E071CFB70180E307
:1012500090E00E9446099A946CCF8FEF9FEF99CF50
:10126000FC010590615070400110D8F78095909571
:101270008E0F9F1F0895FC01615070400190011076
:10128000D8F7809590958E0F9F1F08950F931F9309
:10129000CF93DF93182F092FEB018B8181FD09C0BC
:1012A0001FEF0FEF812F902FDF91CF911F910F91A3
:1012B000089582FF14C02E813F818C819D81281763
:1012C00039073CF4E881F981CF010196998388833D
:1012D00010838E819F8101969F838E83E3CFE88563
:1012E000F985812F0995892BA1F3DACFFA01AA2775
:1012F000283051F1203181F1E8946F936E7F6E5F59
:101300007F4F8F4F9F4FAF4FB1E03ED0B4E03CD006
:10131000670F781F891F9A1FA11D680F791F8A1FE9
:10132000911DA11D6A0F711D811D911DA11D20D050
:1013300009F468943F912AE0269F11243019305D0A
:101340003193DEF6CF010895462F4770405D4193FB
:10135000B3E00FD0C9F7F6CF462F4F70405D4A3348
:1013600018F0495D31FD4052419302D0A9F7EACF10
:10137000B4E0A6959795879577956795BA95C9F73F
:1013800000976105710508959B01AC010A2E069432
:101390005795479537952795BA95C9F7620F731FEB
:1013A000841F951FA01D08952F923F924F925F9228
:1013B0006F927F928F929F92AF92BF92CF92DF9265
:1013C000EF92FF920F931F93CF93DF93CDB7DEB7CA
:1013D000CA1BDB0B0FB6F894DEBF0FBECDBF09945E
:1013E0002A88398848885F846E847D848C849B84B5
:1013F000AA84B984C884DF80EE80FD800C811B81C3
:10140000AA81B981CE0FD11D0FB6F894DEBF0FBEF1
:10141000CDBFED010895F894FFCF25640053656CAE
:101420006563742061206D6F64652000456E74658E
:1014300072206120666F7220616374697665206D29
:101440006F746F72206D20666F72206D616E7561B2
:101450006C206D6F646520005448414E4B20594FFD
:101460005500446F20796F752077616E7420746F1A
:1014700020636F6E74696E756520616E79206D6F83
:10148000646520792F6E3A20004E6F206D6F646581
:1014900000646F20796F752077616E7420746F20FF
:1014A0006578697420656E7465722071206F722092
:1014B0006E20004175746F206D6F64652069732024
:1014C00073656C6563746564200074687265736825
:1014D0006F6C64206F662074656D706572617475E1
:1014E00072653D323620630054656D7065726174BB
:1014F0007572652069733A005468726573686F6C21
:1015000064206F662067617320697320342500476B
:101510006173206973203A20004F626A656374200A
:1015200069732064657465637465642120004F628B
:101530006A656374206973206E6F742044657465F6
:1015400063746564212000656E746572207468653B
:10155000206D6F746F7220746F2073656C65637497
:101560002000456E746572207320666F722073745C
:1015700065707065726D6F746F72206420666F7233
:10158000206463206D6F746F722000446F20796F48
:10159000752077616E7420746F20636F6E74696E4E
:1015A000756520616E79206D6F746F7220792F6E72
:1015B0003A20004E6F206D6F746F72730073746504
:1015C00070706572206D6F746F722073656C6563E7
:1015D00074656400456E7465722074686520616E80
:1015E000676C65004443206D6F746F722073656C87
:1015F000656374656400456E746572207468652067
:0C16000064757479206379636C650000E8
:107E0000112484B714BE81FFF0D085E080938100F7
:107E100082E08093C00088E18093C10086E0809377
:107E2000C20080E18093C4008EE0C9D0259A86E02C
:107E300020E33CEF91E0309385002093840096BBD3
:107E4000B09BFECF1D9AA8958150A9F7CC24DD24C4
:107E500088248394B5E0AB2EA1E19A2EF3E0BF2EE7
:107E6000A2D0813461F49FD0082FAFD0023811F036
:107E7000013811F484E001C083E08DD089C08234E0
:107E800011F484E103C0853419F485E0A6D080C0E4
:107E9000853579F488D0E82EFF2485D0082F10E0AE
:107EA000102F00270E291F29000F111F8ED06801E7
:107EB0006FC0863521F484E090D080E0DECF843638
:107EC00009F040C070D06FD0082F6DD080E0C81688
:107ED00080E7D80618F4F601B7BEE895C0E0D1E017
:107EE00062D089930C17E1F7F0E0CF16F0E7DF06D8
:107EF00018F0F601B7BEE89568D007B600FCFDCFD4
:107F0000A601A0E0B1E02C9130E011968C91119780
:107F100090E0982F8827822B932B1296FA010C0160
:107F200087BEE89511244E5F5F4FF1E0A038BF0790
:107F300051F7F601A7BEE89507B600FCFDCF97BE46
:107F4000E89526C08437B1F42ED02DD0F82E2BD052
:107F50003CD0F601EF2C8F010F5F1F4F84911BD097
:107F6000EA94F801C1F70894C11CD11CFA94CF0C13
:107F7000D11C0EC0853739F428D08EE10CD085E9AC
:107F80000AD08FE07ACF813511F488E018D01DD067
:107F900080E101D065CF982F8091C00085FFFCCF94
:107FA0009093C60008958091C00087FFFCCF809118
:107FB000C00084FD01C0A8958091C6000895E0E648
:107FC000F0E098E1908380830895EDDF803219F02E
:107FD00088E0F5DFFFCF84E1DECF1F93182FE3DFCA
:107FE0001150E9F7F2DF1F91089580E0E8DFEE27F6
:047FF000FF270994CA
:027FFE00040479
:00000001FF
